:100000000C9463000C948B000C948B000C9474047F
:100010000C9474040C9474040C948B000C948B005A
:100020000C948B000C948B000C948B000C948B0024
:100030000C948B000C948B000C948B000C948B0014
:100040000C942A040C948B000C94F8030C94D203A7
:100050000C948B000C948B000C948B000C948B00F4
:100060000C948B000C948B000000000024002700EF
:100070002A0000000008000201000003040700003D
:1000800000000000000000000000230026002900FE
:1000900000000000250028002B00040404040404D0
:1000A0000404020202020202030303030303010227
:1000B00004081020408001020408102001020408F6
:1000C00010207005830911241FBECFEFD8E0DEBFDA
:1000D000CDBF22E0A8EDB1E001C01D92A53FB2075F
:1000E000E1F711E0A0E0B1E0E2EEFCE102C0059032
:1000F0000D92A83DB107D9F710E0C2E6D0E004C0E8
:100100002197FE010E946C0CC136D107C9F70E94ED
:1001100042060C94640E0C940000AF92BF92CF92F2
:10012000DF92EF92FF920F931F93CF93DF936C01B7
:100130007B018B01040F151FEB015E01AE18BF0898
:10014000C017D10759F06991D601ED91FC9101904A
:10015000F081E02DC6010995892B79F7C501DF9162
:10016000CF911F910F91FF90EF90DF90CF90BF90B4
:10017000AF900895FC01538D448D252F30E0842FDE
:1001800090E0821B930B541710F0CF9608950197BF
:100190000895FC01918D828D981761F0A28DAE0FAC
:1001A000BF2FB11D5D968C91928D9F5F9F73928F33
:1001B00090E008958FEF9FEF0895FC01918D828D5F
:1001C000981731F0828DE80FF11D858D90E008952C
:1001D0008FEF9FEF0895FC01918D228D892F90E084
:1001E000805C9F4F821B91098F739927089589E244
:1001F00092E00E94EB0021E0892B09F420E0822F9D
:10020000089580E090E0892B29F00E94F700811189
:100210000C9400000895FC01A48DA80FB92FB11D06
:10022000A35ABF4F2C91848D90E001968F7399272C
:10023000848FA689B7892C93A089B1898C9183700A
:1002400080648C93938D848D981306C00288F38903
:10025000E02D80818F7D80830895EF92FF920F9330
:100260001F93CF93DF93EC0181E0888F9B8D8C8D62
:1002700098131AC0E889F989808185FF15C09FB756
:10028000F894EE89FF896083E889F9898081837019
:10029000806480839FBF81E090E0DF91CF911F91C8
:1002A0000F91FF90EF900895F62E0B8D10E00F5FE9
:1002B0001F4F0F731127E02E8C8D8E110CC00FB6BF
:1002C00007FCFACFE889F989808185FFF5CFCE0157
:1002D0000E940B01F1CFEB8DEC0FFD2FF11DE35AC6
:1002E000FF4FF0829FB7F8940B8FEA89FB898081DA
:1002F0008062CFCFCF93DF93EC01888D8823B9F054
:10030000AA89BB89E889F9898C9185FD03C0808120
:1003100086FD0DC00FB607FCF7CF8C9185FFF2CF9D
:10032000808185FFEDCFCE010E940B01E9CFDF91E7
:10033000CF91089590E0FC01EE58FF4F2491FC010D
:10034000E255FF4F3491FC01E656FF4FE491EE2356
:10035000C9F0222339F0233001F1A8F4213019F13A
:10036000223029F1F0E0EE0FFF1FE057FF4FA5917B
:10037000B4918FB7F894EC91611126C030953E236B
:100380003C938FBF08952730A9F02830C9F024305E
:1003900049F7809180008F7D03C0809180008F7726
:1003A00080938000DFCF84B58F7784BDDBCF84B5A9
:1003B0008F7DFBCF8091B0008F778093B000D2CF3C
:1003C0008091B0008F7DF9CF3E2BDACFCF93DF93B2
:1003D00090E0FC01E255FF4F249186569F4FFC01AF
:1003E00084918823D1F090E0880F991FFC01E8598F
:1003F000FF4FA591B491FC01E057FF4FC591D491F7
:1004000061110EC09FB7F8948C91E22FE0958E2376
:100410008C932881E223E8839FBFDF91CF910895D9
:100420008FB7F894EC91E22BEC938FBFF6CF3FB7E8
:10043000F89480911D0290911E02A0911F02B0912C
:10044000200226B5A89B05C02F3F19F00196A11DDB
:10045000B11D3FBFBA2FA92F982F8827BC01CD010E
:10046000620F711D811D911D42E0660F771F881F6D
:10047000991F4A95D1F708958F929F92AF92BF929C
:10048000CF92DF92EF92FF924B015C010E94170224
:100490006B017C010E9417026C197D098E099F096E
:1004A000683E734081059105A8F321E0821A910806
:1004B000A108B10888EEC80E83E0D81EE11CF11C2B
:1004C00081149104A104B10429F7FF90EF90DF900B
:1004D000CF90BF90AF909F908F900895209123026E
:1004E000309124022817390771F4909121028091EC
:1004F0002202981741F0E0912102F0E0E852FE4F0D
:10050000808190E008958FEF9FEF08950895EF9216
:10051000FF920F931F93CF93DF93DC015C96ED90D6
:10052000FC905D97E114F10479F481E090E013967A
:100530009C938E93129790E080E0DF91CF911F9172
:100540000F91FF90EF9008955196ED91FC91529785
:1005500050968C915097982F90950FB75E962C914E
:100560005E97122F127021FD6095F894208111235F
:1005700019F1282B2083E7012197F1F728E0462F76
:1005800050E0308160FF1AC0382B3083E70121979B
:10059000F1F7BA0175956795215089F7112381F01C
:1005A0008081892380830FBF5C968D919C910197F8
:1005B000F1F781E090E0C1CF2923DCCF3923E5CFEB
:1005C0009081892BEFCF20912302309124022817AC
:1005D000390771F4809122022091210290E0805C21
:1005E0009F4F821B910960E470E00E94220C0895E5
:1005F00090E080E008952091230230912402281792
:100600003907B9F49091210280912202981789F05C
:10061000E0912102F0E0E852FE4F8081209121021A
:1006200030E02F5F3F4F2F7333272093210290E05C
:1006300008958FEF9FEF089590E080E00895FB010B
:1006400001900020E9F73197AF01461B570BDC0101
:10065000ED91FC910280F381E02D09948F929F929D
:10066000AF92BF92EF92FF920F931F93CF93DF93BE
:10067000CDB7DEB7A1970FB6F894DEBF0FBECDBFE2
:100680007C01FA01CB0119A2223008F42AE08E0184
:100690000F5D1F4F822E912CB12CA12CBF01A50103
:1006A00094010E94360CF901CA016A300CF5605DB4
:1006B000D8016E938D01232B242B252B79F790E005
:1006C00080E0109721F0BD01C7010E941F03A19691
:1006D0000FB6F894DEBF0FBECDBFDF91CF911F9153
:1006E0000F91FF90EF90BF90AF909F908F900895E3
:1006F000695CDECFCF92DF92EF92FF920F931F9350
:10070000CF93DF93EC016B01770FEE08FF08F7FE44
:1007100025C0E881F9810190F081E02D6DE2099515
:100720008C0144275527BA014C195D096E097F09D0
:100730002AE0CE010E942E03080F191F6AE271E021
:10074000CE010E941F03800F911FDF91CF911F9157
:100750000F91FF90EF90DF90CF9008952AE0B701BE
:10076000A6010E942E038C01E9CF0F931F93CF9314
:10077000DF93EC01FB014481558160817181E88147
:10078000F9810280F381E02D09958C016AE271E024
:10079000CE010E941F03800F911FDF91CF911F9107
:1007A0000F9108951F920F920FB60F9211242F935D
:1007B0003F934F935F936F937F938F939F93AF93E9
:1007C000BF93EF93FF9389E292E00E940B01FF91A8
:1007D000EF91BF91AF919F918F917F916F915F91B9
:1007E0004F913F912F910F900FBE0F901F90189532
:1007F0001F920F920FB60F9211242F938F939F93F6
:10080000EF93FF93E0913902F0913A028081E091F9
:100810003F02F091400282FD1BC090818091420214
:100820008F5F8F7320914302821741F0E091420263
:10083000F0E0E75DFD4F958F80934202FF91EF91CD
:100840009F918F912F910F900FBE0F901F90189531
:100850008081F4CF1F920F920FB60F9211242F9325
:100860003F938F939F93AF93BF9380911902909181
:100870001A02A0911B02B0911C023091180223E0D1
:10088000230F2D3758F50196A11DB11D2093180295
:100890008093190290931A02A0931B02B0931C023A
:1008A00080911D0290911E02A0911F02B091200222
:1008B0000196A11DB11D80931D0290931E02A0936D
:1008C0001F02B0932002BF91AF919F918F913F91F2
:1008D0002F910F900FBE0F901F90189526E8230FB1
:1008E0000296A11DB11DD2CF1F920F920FB60F928B
:1008F00011242F933F934F935F936F937F938F9325
:100900009F93AF93BF93EF93FF93E0912302F091F6
:100910002402309749F0A685B7858585968D91FF8D
:1009200014C09C918923A1F4FF91EF91BF91AF91E5
:100930009F918F917F916F915F914F913F912F91F7
:100940000F900FBE0F901F9018959C91892361F70F
:10095000A389B4899C918589809589238C93868904
:1009600097890197F1F7608D718DA685B7855585BB
:1009700038E020E0CB010197F1F7822F90E09595C8
:100980008795282F4C91452309F02068315091F725
:10099000868D81FD20958091220290E001968F73D3
:1009A000992730912102381799F0A0912202B0E0E6
:1009B000A852BE4F2C9380932202828D938D019773
:1009C000F1F7A389B4898C919589892B8C93ACCF4D
:1009D000868D8160868FF1CFCF92DF92EF92FF926A
:1009E0000F931F93E82FF92F05C00150110921091A
:1009F000310961F1908196239417B9F305C0015034
:100A000011092109310911F1908196239413F7CF2F
:100A1000C12CD12CE12CF12C0AC08FEFC81AD80AB6
:100A2000E80AF80A0C151D052E053F0579F08081AE
:100A30008623841791F36C2D7D2D8E2D9F2D1F9174
:100A40000F91FF90EF90DF90CF90089560E070E0FD
:100A500080E090E01F910F91FF90EF90DF90CF909A
:100A60000895EF92FF920F931F93CF93DF93EC01C2
:100A70007B018A0188819981009729F02A813B8135
:100A80002417350788F4B8016F5F7F4F0E94970DD8
:100A9000009791F0998388831B830A832C813D8181
:100AA000232B11F4FC0110821D830C83B701888174
:100AB00099810E945D0E0CC088819981009711F088
:100AC0000E940E0D198218821D821C821B821A82BE
:100AD000CE01DF91CF911F910F91FF90EF9008957C
:100AE00010922C0210922B0288EE93E0A0E0B0E06E
:100AF00080932D0290932E02A0932F02B093300288
:100B00002AE031E030932A022093290225EC30E0DC
:100B1000309336022093350224EC30E030933802D3
:100B20002093370220EC30E030933A0220933902D0
:100B300021EC30E030933C0220933B0222EC30E089
:100B400030933E0220933D0226EC30E03093400289
:100B500020933F02109242021092430210924402EC
:100B6000109245021092D5021092D4028093D602C0
:100B70009093D702A093D802B093D9028CE191E070
:100B80009093D3028093D2021092E9021092E8026D
:100B90001092EB021092EA021092ED021092EC0217
:100BA0001092EF021092EE026091F0026E7F6D7F64
:100BB0006093F0026695617081E068278BE00E9487
:100BC0009A0161E08BE00E94E601E9EBF0E0E4913C
:100BD000E093E202E5EAF0E0E491F0E0EE0FFF1FBF
:100BE000E057FF4F859194919093E4028093E30244
:100BF00060E08AE00E94E6018091F00281FD04C07D
:100C000061E08AE00E949A018AE08093DE02E8EBCC
:100C1000F0E0E491E093DF02E4EAF0E0E491F0E058
:100C2000EE0FFF1FEA57FF4F859194919093E102D9
:100C30008093E0021092CD021092CC021092CF026B
:100C40001092CE021092D1021092D00249E050E0F0
:100C50006DE271E08CEC92E00E9431051092C702C7
:100C60001092C6021092C9021092C8021092CB02D2
:100C70001092CA0248E050E067E371E086EC92E02F
:100C80000C943105789484B5826084BD84B581600C
:100C900084BD85B5826085BD85B5816085BD809147
:100CA0006E00816080936E001092810080918100BF
:100CB00082608093810080918100816080938100B7
:100CC000809180008160809380008091B100846079
:100CD0008093B1008091B00081608093B0008091DA
:100CE0007A00846080937A0080917A008260809399
:100CF0007A0080917A00816080937A0080917A00F6
:100D0000806880937A001092C10061E082E00E94C6
:100D1000E60160E083E00E94E60161E089E00E9474
:100D2000E601E0913902F0913A0282E08083E0919D
:100D30003502F09136021082E0913702F0913802CC
:100D40008FEC808310924102E0913D02F0913E02CF
:100D500086E08083E0913B02F0913C0280818061DB
:100D60008083E0913B02F0913C0280818860808327
:100D7000E0913B02F0913C02808180688083E091A9
:100D80003B02F0913C0280818F7D80831092ED02C6
:100D90001092EC021092EB021092EA021092E90219
:100DA0001092E80285E690E09093EF028093EE02C5
:100DB0009091DE02963108F047C021E230E0309396
:100DC000E9022093E80223E630E03093EB0220931F
:100DD000EA0222E430E03093ED022093EC0220910D
:100DE000680084E0983048F031E09E3008F430E04C
:100DF00081E001C0880F3A95EAF7822B8093680062
:100E00002DE630E0983050F02BE630E09E3030F0A8
:100E10002CE630E0963110F030E020E03093E6022E
:100E20002093E502292F30E0983008F070C181E06E
:100E300001C0880F9A95EAF78093E7028091EE024D
:100E40009091EF020197F1F78091EC029091ED0201
:100E5000892B49F1E0912302F091240282E0E23DE6
:100E6000F80709F1309739F0A389B4899C918589F5
:100E7000809589238C938091F0028E7F8093F0027D
:100E8000109222021092210282ED92E090932402AD
:100E900080932302E091E502F091E6028081909137
:100EA000E702892B808368E873E180E090E00E948C
:100EB0003C0260E471E082ED92E00E941F036CEC62
:100EC00072E082ED92E00E94B50369E471E089E28C
:100ED00092E00E941F036CEC72E089E292E00E94B3
:100EE000B50368EE73E080E090E00E943C0261E6AA
:100EF00071E082ED92E00E941F0364E875E082EDEC
:100F000092E00E947A036AE671E089E292E00E9430
:100F10001F0364E875E089E292E00E947A0368EEBC
:100F200073E080E090E00E943C0266E871E082EDB0
:100F300092E00E941F0366EC72E082ED92E00E9454
:100F4000B5036FE871E089E292E00E941F0366EC4E
:100F500072E089E292E00E94B50360ED77E080E004
:100F600090E00E943C026CEA71E089E292E00E940B
:100F70001F036AE271E089E292E00E941F03CBE95D
:100F8000DFE091EB292E90E0392E2DE9A22E20E012
:100F9000B22E30E0832E30E0932E61E082E00E949A
:100FA0009A01CE010197F1F760E082E00E949A0178
:100FB000F1016491F5018491E82FF0E0EE0FFF1F3D
:100FC000EA57FF4F8591949100E412E42FE030E05E
:100FD000462F0E94EC04611571058105910529F0E9
:100FE0006F5F7F4F8F4F9F4F9F700E94B40920E02B
:100FF00030E040E05FE30E94150A2DEC3CEC48EE47
:1010000051E40E94770B609325027093260280932F
:101010002702909328026FEB71E089E292E00E9430
:101020001F03C0902502D0902602E0902702F09086
:101030002802A7019601C701B6010E941D0C69ECA8
:1010400071E081111BC026013701E89477F82FEF7A
:101050003FEF4FE75FE7C301B2010E941D0C811112
:1010600063C02FEF3FEF4FE75FE7C301B2010E947C
:10107000AF0918160CF058C06DEC71E089E292E0EF
:101080000E941F0365ED71E089E292E00E941F0358
:1010900064E670E080E090E00E943C026AE271E069
:1010A00089E292E00E941F03C0902502D0902602A0
:1010B000E0902702F090280220E030E040E251E486
:1010C000C701B6010E94AF0918160CF4ABC061E06D
:1010D00089E00E949A0164E670E080E090E00E945E
:1010E0003C0260E089E00E949A016AE570E080E0DD
:1010F00090E00E943C028114910409F44ECF0E94BA
:10110000F700882309F449CF0E94000046CF9E30A3
:1011100040F42850310981E001C0880F2A95EAF790
:101120008BCE2E503109F7CF2FEF3FEF4FE75FE423
:10113000C701B6010E94180C18161CF461ED71E08D
:101140009DCF2FEF3FEF4FE75FECC701B6010E9445
:10115000AF0987FDF3CF20E030E0A901C701B60158
:101160000E94AF0987FF09C06DE289E292E00E9408
:101170002D01F7FAF094F7F8F0942AE037ED43EAFE
:101180005BE3C701B6010E940B0B2B013C010E94DF
:10119000E90B6B017C010E94B4099B01AC01C30106
:1011A000B2010E940A0B2B013C012AE0B701A60103
:1011B00089E292E00E942E036EE289E292E00E94B0
:1011C0002D0120E030E040E251E4C301B2010E9471
:1011D000150A2B013C010E94E90B6B01F12CE12C5B
:1011E0002AE0B701A60189E292E00E942E03C7011E
:1011F000B6010E94B4099B01AC01C301B2010E9477
:101200000A0B20E030E040E251E40E94150A0E94FF
:10121000E90BAB0170E060E02AE089E292E00E9415
:101220002E0330CF20E030E040EA51E4C701B601A0
:101230000E94AF0918169CF061E089E00E949A01B3
:1012400068EC70E080E090E00E943C0260E089E0A1
:101250000E949A0166E970E080E090E04ACF20E0C9
:1012600030E040EF51E4C701B6010E94AF09181603
:101270009CF061E089E00E949A016EE571E080E0F7
:1012800090E00E943C0260E089E00E949A016AEFCF
:1012900070E080E090E02DCF20E030E040E252E4CA
:1012A000C701B6010E94AF0918169CF061E089E001
:1012B0000E949A0164EF71E080E090E00E943C029D
:1012C00060E089E00E949A0162EC71E080E090E0C9
:1012D00010CF20E030E048E452E4C701B6010E949C
:1012E000AF0918160CF407CF61E089E00E949A015B
:1012F0006EEE72E080E090E00E943C0260E089E0E7
:101300000E949A01F8CE8091C6029091C702009780
:1013100011F00E940E0D8091CC029091CD020097A9
:1013200011F00E940E0D8CE191E09093D302809316
:10133000D2028091230290912402825D924071F446
:10134000E091E502F091E60290818091E7028095BC
:1013500089238083109224021092230208950E9410
:10136000F10908F481E00895E89409C097FB3EF480
:1013700090958095709561957F4F8F4F9F4F9923E2
:10138000A9F0F92F96E9BB279395F6958795779560
:101390006795B795F111F8CFFAF4BB0F11F460FF20
:1013A0001BC06F5F7F4F8F4F9F4F16C0882311F078
:1013B00096E911C0772321F09EE8872F762F05C08C
:1013C000662371F096E8862F70E060E02AF09A9527
:1013D000660F771F881FDAF7880F9695879597F91C
:1013E0000895990F0008550FAA0BE0E8FEEF1616B6
:1013F0001706E807F907C0F012161306E407F50709
:1014000098F0621B730B840B950B39F40A2661F07C
:10141000232B242B252B21F408950A2609F4A1401F
:10142000A6958FEF811D811D08950E94280A0C94B6
:10143000990A0E948B0A38F00E94920A20F09523A4
:1014400011F00C94820A0C94880A11240C94CD0A91
:101450000E94AA0A70F3959FC1F3950F50E0551FA3
:10146000629FF001729FBB27F00DB11D639FAA27F9
:10147000F00DB11DAA1F649F6627B00DA11D661F48
:10148000829F2227B00DA11D621F739FB00DA11D69
:10149000621F839FA00D611D221F749F3327A00D23
:1014A000611D231F849F600D211D822F762F6A2FBF
:1014B00011249F5750409AF0F1F088234AF0EE0F24
:1014C000FF1FBB1F661F771F881F91505040A9F751
:1014D0009E3F510580F00C94820A0C94CD0A5F3F28
:1014E000E4F3983ED4F3869577956795B795F7958D
:1014F000E7959F5FC1F7FE2B880F911D9695879505
:1015000097F9089597F99F6780E870E060E0089583
:101510009FEF80EC089500240A941616170618060B
:101520000906089500240A941216130614060506E7
:101530000895092E0394000C11F4882352F0BB0F78
:1015400040F4BF2B11F460FF04C06F5F7F4F8F4FDB
:101550009F4F089557FD9058440F551F59F05F3F16
:1015600071F04795880F97FB991F61F09F3F79F0C5
:1015700087950895121613061406551FF2CF469547
:10158000F1DF08C0161617061806991FF1CF8695C9
:101590007105610508940895E894BB2766277727AD
:1015A000CB0197F908952F923F924F925F926F92DD
:1015B0007F928F929F92AF92BF92CF92DF92EF92E3
:1015C000FF920F931F93CF93DF93CDB7DEB7CA1B64
:1015D000DB0B0FB6F894DEBF0FBECDBF09942A888F
:1015E000398848885F846E847D848C849B84AA8437
:1015F000B984C884DF80EE80FD800C811B81AA81C4
:10160000B981CE0FD11D0FB6F894DEBF0FBECDBF8E
:10161000ED0108955058BB27AA270E94220B0C9475
:10162000990A0E948B0A38F00E94920A20F039F43D
:101630009F3F19F426F40C94880A0EF4E095E7FB1A
:101640000C94820AE92F0E94AA0A58F3BA1762077B
:1016500073078407950720F079F4A6F50C94CC0A5B
:101660000EF4E0950B2EBA2FA02D0B01B9019001BD
:101670000C01CA01A0011124FF27591B99F0593F01
:1016800050F4503E68F11A16F040A22F232F342F49
:101690004427585FF3CF469537952795A795F04097
:1016A0005395C9F77EF41F16BA0B620B730B840BAC
:1016B000BAF09150A1F0FF0FBB1F661F771F881F64
:1016C000C2F70EC0BA0F621F731F841F48F48795BC
:1016D00077956795B795F7959E3F08F0B0CF9395AE
:1016E000880F08F09927EE0F9795879508950E9427
:1016F0008B0B0C94990A0E94920A58F00E948B0A54
:1017000040F029F45F3F29F00C94820A51110C94A7
:10171000CD0A0C94880A0E94AA0A68F39923B1F3AF
:10172000552391F3951B550BBB27AA276217730707
:10173000840738F09F5F5F4F220F331F441FAA1F9B
:10174000A9F335D00E2E3AF0E0E832D09150504057
:10175000E695001CCAF72BD0FE2F29D0660F771F05
:10176000881FBB1F261737074807AB07B0E809F0EB
:10177000BB0B802DBF01FF2793585F4F3AF09E3F70
:10178000510578F00C94820A0C94CD0A5F3FE4F383
:10179000983ED4F3869577956795B795F7959F5FB3
:1017A000C9F7880F911D9695879597F90895E1E0FF
:1017B000660F771F881FBB1F621773078407BA075E
:1017C00020F0621B730B840BBA0BEE1F88F7E095B9
:1017D00008950E94B20A88F09F5798F0B92F992770
:1017E000B751B0F0E1F0660F771F881F991F1AF00C
:1017F000BA95C9F714C0B13091F00E94CC0AB1E09B
:1018000008950C94CC0A672F782F8827B85F39F099
:10181000B93FCCF3869577956795B395D9F73EF4A4
:1018200090958095709561957F4F8F4F9F4F08954C
:101830000E94F10908F48FEF08950E94F109880BC6
:10184000990B089597FB072E16F4009407D077FDA7
:1018500009D00E94580C07FC05D03EF49095819564
:101860009F4F0895709561957F4F0895A1E21A2EBC
:10187000AA1BBB1BFD010DC0AA1FBB1FEE1FFF1F34
:10188000A217B307E407F50720F0A21BB30BE40B84
:10189000F50B661F771F881F991F1A9469F76095CB
:1018A0007095809590959B01AC01BD01CF01089585
:1018B000AA1BBB1B51E107C0AA1FBB1FA617B70776
:1018C00010F0A61BB70B881F991F5A95A9F7809592
:1018D0009095BC01CD010895EE0FFF1F0590F49186
:1018E000E02D09940F931F93CF93DF9382309105DE
:1018F00010F482E090E0E091F302F091F40230E025
:1019000020E0B0E0A0E0309799F42115310509F40A
:101910004AC0281B390B24303105D8F58A819B81B8
:101920006115710589F1FB0193838283FE0111C06A
:10193000408151810281138148175907E0F048170F
:10194000590799F4109761F012960C931297139619
:101950001C933296CF01DF91CF911F910F91089583
:101960000093F3021093F402F4CF2115310551F0E6
:101970004217530738F0A901DB019A01BD01DF01CD
:10198000F801C1CFEF01F9CF9093F4028093F302F5
:10199000CDCFFE01E20FF31F8193919322503109C5
:1019A00039832883D7CF2091F1023091F202232B83
:1019B00041F420910201309103013093F20220930F
:1019C000F10220910001309101012115310541F40E
:1019D0002DB73EB74091040150910501241B350BF2
:1019E000E091F102F091F202E217F307A0F42E1B4E
:1019F0003F0B2817390778F0AC014E5F5F4F241773
:101A0000350748F04E0F5F1F5093F2024093F102EA
:101A1000819391939FCFF0E0E0E09CCFCF93DF9351
:101A20000097E9F0FC01329713821282A091F30231
:101A3000B091F402ED0130E020E01097A1F4208194
:101A40003181820F931F2091F1023091F202281709
:101A5000390709F061C0F093F202E093F102DF91DF
:101A6000CF910895EA01CE17DF07E8F54A815B813F
:101A70009E0141155105B1F7E901FB83EA834991C4
:101A80005991C40FD51FEC17FD0761F48081918136
:101A90000296840F951FE90199838883828193813F
:101AA0009B838A83F0E0E0E012968D919C911397DE
:101AB0000097B9F52D913C911197CD010296820FB7
:101AC000931F2091F1023091F2022817390739F65D
:101AD000309751F51092F4021092F302B093F20293
:101AE000A093F102BCCFD383C28340815181840F84
:101AF000951FC817D90761F44E5F5F4F88819981A0
:101B0000480F591F518340838A819B81938382832D
:101B10002115310509F0B0CFF093F402E093F30200
:101B20009ECFFD01DC01C0CF13821282D7CFB0E07F
:101B3000A0E0EDE9FDE00C94D50A8C01009751F48A
:101B4000CB010E94720C8C01C801CDB7DEB7E0E179
:101B50000C94F10AFC01E60FF71F9C012250310999
:101B6000E217F30708F49DC0D901CD91DC911197DC
:101B7000C617D70798F0C530D10530F3CE010497CA
:101B80008617970708F3C61BD70B2297C193D193EB
:101B90006D937C93CF010E940E0DD6CF5B01AC1AE2
:101BA000BD0A4C018C0E9D1EA091F302B091F4026F
:101BB000512C412CF12CE12C109731F58091F10240
:101BC0009091F2028815990509F05CC046165706F7
:101BD00008F058C08091000190910101009741F4F4
:101BE0008DB79EB74091040150910501841B950B60
:101BF000E817F90708F055C0F093F202E093F102FC
:101C0000F90171836083A0CF8D919C9111971296F9
:101C10006C90129713967C901397A815B90559F5F7
:101C20006C0142E0C40ED11CCA14DB0420F1AC01EB
:101C30004A195B09DA011296159780F06282738265
:101C400051834083D9016D937C93E114F10471F0C9
:101C5000D7011396FC93EE93129776CF22968C0FB2
:101C60009D1FF90191838083F301EFCFF093F4027C
:101C7000E093F30269CF4816590608F42C017D0160
:101C8000D3019ACFCB010E94720C7C01009749F0DE
:101C9000AE01B8010E94540EC8010E940E0D8701CA
:101CA00053CF10E000E050CFFB01DC0102C00190F7
:101CB0000D9241505040D8F70895FB01DC0101908E
:101CC0000D920020E1F7089510E0C2E6D0E004C0D4
:101CD000FE010E946C0C2196C336D107C9F7F89417
:021CE000FFCF34
:101CE2000000F5028000000000002D018D00BA0006
:101CF2007A01EB00C900DD000000000087028D00C0
:101D02001C038602E302FB026E020D0A00444552E6
:101D1200454E20554E4F00393630302C302C300095
:101D220041542B4E414D453D00546865206E616D16
:101D32006520686173206265656E207365743A2060
:101D42000041542B505357443D0054686520706144
:101D52007373776F726420686173206265656E20A9
:101D62007365743A200041542B554152543D00543E
:101D720068652062617564207261746520686173B0
:101D8200206265656E207365743A200050726F633D
:101D920065737320636F6D706C657465642E0044A7
:101DA200697374616E63653A006E616E00696E6696
:081DB200006F766600636D000E
:107E0000112484B714BE81FFF0D085E080938100F7
:107E100082E08093C00088E18093C10086E0809377
:107E2000C20080E18093C4008EE0C9D0259A86E02C
:107E300020E33CEF91E0309385002093840096BBD3
:107E4000B09BFECF1D9AA8958150A9F7CC24DD24C4
:107E500088248394B5E0AB2EA1E19A2EF3E0BF2EE7
:107E6000A2D0813461F49FD0082FAFD0023811F036
:107E7000013811F484E001C083E08DD089C08234E0
:107E800011F484E103C0853419F485E0A6D080C0E4
:107E9000853579F488D0E82EFF2485D0082F10E0AE
:107EA000102F00270E291F29000F111F8ED06801E7
:107EB0006FC0863521F484E090D080E0DECF843638
:107EC00009F040C070D06FD0082F6DD080E0C81688
:107ED00080E7D80618F4F601B7BEE895C0E0D1E017
:107EE00062D089930C17E1F7F0E0CF16F0E7DF06D8
:107EF00018F0F601B7BEE89568D007B600FCFDCFD4
:107F0000A601A0E0B1E02C9130E011968C91119780
:107F100090E0982F8827822B932B1296FA010C0160
:107F200087BEE89511244E5F5F4FF1E0A038BF0790
:107F300051F7F601A7BEE89507B600FCFDCF97BE46
:107F4000E89526C08437B1F42ED02DD0F82E2BD052
:107F50003CD0F601EF2C8F010F5F1F4F84911BD097
:107F6000EA94F801C1F70894C11CD11CFA94CF0C13
:107F7000D11C0EC0853739F428D08EE10CD085E9AC
:107F80000AD08FE07ACF813511F488E018D01DD067
:107F900080E101D065CF982F8091C00085FFFCCF94
:107FA0009093C60008958091C00087FFFCCF809118
:107FB000C00084FD01C0A8958091C6000895E0E648
:107FC000F0E098E1908380830895EDDF803219F02E
:107FD00088E0F5DFFFCF84E1DECF1F93182FE3DFCA
:107FE0001150E9F7F2DF1F91089580E0E8DFEE27F6
:047FF000FF270994CA
:027FFE00040479
:0400000300007E007B
:00000001FF
